{
  "transactions": [
    {
      "hash": "0x6ebe73c333e7d3d119306635c24401c6a3ed7b46a4d7a622859db2cf9c059f94",
      "transactionType": "CALL",
      "contractName": null,
      "contractAddress": "0x892e3618808d42875a3f9cd64f3140e5c9d9bdec",
      "function": "Deposit(bytes)",
      "arguments": [
        "0x45514158507878485973546d43576f77586e3636775051704f5f6a7179695a37636b756d6566765132594634736e4656"
      ],
      "transaction": {
        "from": "0x2373a942febc0ee428b266bdd58275794e7f1553",
        "to": "0x892e3618808d42875a3f9cd64f3140e5c9d9bdec",
        "gas": "0xa5c0",
        "value": "0xb5e620f48000",
        "input": "0x7adcde220000000000000000000000000000000000000000000000000000000000000020000000000000000000000000000000000000000000000000000000000000003045514158507878485973546d43576f77586e3636775051704f5f6a7179695a37636b756d6566765132594634736e465600000000000000000000000000000000",
        "nonce": "0xf1",
        "chainId": "0xaa36a7"
      },
      "additionalContracts": [],
      "isFixedGasLimit": false
    }
  ],
  "receipts": [
    {
      "status": "0x1",
      "cumulativeGasUsed": "0xb69bc7",
      "logs": [
        {
          "address": "0x892e3618808d42875a3f9cd64f3140e5c9d9bdec",
          "topics": [
            "0xdcc506b9e6fac3bcb660e496d1d1ed42583add2a7b06a06b52aeb401d4863c2e",
            "0x000000000000000000000000000000000000000000000000000000000000000d",
            "0x0000000000000000000000002373a942febc0ee428b266bdd58275794e7f1553"
          ],
          "data": "0x00000000000000000000000000000000000000000000000000000000000000400000000000000000000000000000000000000000000000000000b5e620f48000000000000000000000000000000000000000000000000000000000000000003045514158507878485973546d43576f77586e3636775051704f5f6a7179695a37636b756d6566765132594634736e465600000000000000000000000000000000",
          "blockHash": "0xe4c00a8770536c45c385ee90c855a0b2d4d190092f0d9863af4a0086144d1247",
          "blockNumber": "0x6f0c61",
          "transactionHash": "0x6ebe73c333e7d3d119306635c24401c6a3ed7b46a4d7a622859db2cf9c059f94",
          "transactionIndex": "0x66",
          "logIndex": "0xd3",
          "removed": false
        }
      ],
      "logsBloom": "0x00000000000000000040000000000000000000000000000000000000000000000000000000000000000000000000000000000000000000000000000000000000000000000000000002000000000000000002000000000000000000000000000000000000000000000000000000000000000000000001000000000000000000000000000000000000000000000000000000000000000000000020000000000000000000000000000008000000000000000000000000000000000000000000000000000004000000000004000000000000000000000000000000000000000000020000000000040000000000000000080000000000000000000000000000000080",
      "type": "0x2",
      "transactionHash": "0x6ebe73c333e7d3d119306635c24401c6a3ed7b46a4d7a622859db2cf9c059f94",
      "transactionIndex": "0x66",
      "blockHash": "0xe4c00a8770536c45c385ee90c855a0b2d4d190092f0d9863af4a0086144d1247",
      "blockNumber": "0x6f0c61",
      "gasUsed": "0x7800",
      "effectiveGasPrice": "0x2446d09c5",
      "from": "0x2373a942febc0ee428b266bdd58275794e7f1553",
      "to": "0x892e3618808d42875a3f9cd64f3140e5c9d9bdec",
      "contractAddress": null
    }
  ],
  "libraries": [],
  "pending": [],
  "returns": {},
  "timestamp": 1734185210,
  "chain": 11155111,
  "commit": "48da181"
}