{
  "transactions": [
    {
      "hash": "0xae9f90ffda2647afca5ce57e9ce70d037016464ae526bec738060b6954dec0a9",
      "transactionType": "CALL",
      "contractName": null,
      "contractAddress": "0x892e3618808d42875a3f9cd64f3140e5c9d9bdec",
      "function": "Deposit(bytes)",
      "arguments": [
        "0x455143465839375038367637474e555667776c72662d4736714e4269516f36384770654b3035452d69337a655a636e69"
      ],
      "transaction": {
        "from": "0x2373a942febc0ee428b266bdd58275794e7f1553",
        "to": "0x892e3618808d42875a3f9cd64f3140e5c9d9bdec",
        "gas": "0x10202",
        "value": "0x16345785d8a0000",
        "input": "0x7adcde2200000000000000000000000000000000000000000000000000000000000000200000000000000000000000000000000000000000000000000000000000000030455143465839375038367637474e555667776c72662d4736714e4269516f36384770654b3035452d69337a655a636e6900000000000000000000000000000000",
        "nonce": "0xe1",
        "chainId": "0xaa36a7"
      },
      "additionalContracts": [],
      "isFixedGasLimit": false
    }
  ],
  "receipts": [
    {
      "status": "0x1",
      "cumulativeGasUsed": "0x901cb7",
      "logs": [
        {
          "address": "0x892e3618808d42875a3f9cd64f3140e5c9d9bdec",
          "topics": [
            "0xdcc506b9e6fac3bcb660e496d1d1ed42583add2a7b06a06b52aeb401d4863c2e",
            "0x0000000000000000000000000000000000000000000000000000000000000000",
            "0x0000000000000000000000002373a942febc0ee428b266bdd58275794e7f1553"
          ],
          "data": "0x0000000000000000000000000000000000000000000000000000000000000040000000000000000000000000000000000000000000000000016345785d8a00000000000000000000000000000000000000000000000000000000000000000030455143465839375038367637474e555667776c72662d4736714e4269516f36384770654b3035452d69337a655a636e6900000000000000000000000000000000",
          "blockHash": "0x231c15e1cffc1fc50d5615a276b0bca58a1a74cb387b02e2940cbe68216d4ba3",
          "blockNumber": "0x6f09a6",
          "transactionHash": "0xae9f90ffda2647afca5ce57e9ce70d037016464ae526bec738060b6954dec0a9",
          "transactionIndex": "0x61",
          "logIndex": "0xea",
          "removed": false
        }
      ],
      "logsBloom": "0x00000000000000000000000000000000000000000000000000000000000000000000000000000000000000000000000000000000000000000000000000000000000000000000000002000000000000000000000000000000000000000000000000000000020000000000000000000800000000000001000000000000000000000000000000000000000000000000000000000000000000000020000000000000000000000000000008000000000000000000000000000000000000000000000000000004000000000004000000000000000000000000000000000000000020000000000000040000000000000000080000000000000000000000000000000080",
      "type": "0x2",
      "transactionHash": "0xae9f90ffda2647afca5ce57e9ce70d037016464ae526bec738060b6954dec0a9",
      "transactionIndex": "0x61",
      "blockHash": "0x231c15e1cffc1fc50d5615a276b0bca58a1a74cb387b02e2940cbe68216d4ba3",
      "blockNumber": "0x6f09a6",
      "gasUsed": "0xbacc",
      "effectiveGasPrice": "0x1096c3fc6",
      "from": "0x2373a942febc0ee428b266bdd58275794e7f1553",
      "to": "0x892e3618808d42875a3f9cd64f3140e5c9d9bdec",
      "contractAddress": null
    }
  ],
  "libraries": [],
  "pending": [],
  "returns": {},
  "timestamp": 1734176270,
  "chain": 11155111,
  "commit": "48da181"
}