{
  "transactions": [
    {
      "hash": "0x34a8f6096124e86893ff5938990126b3a61905a598274bcb9200581658a754ef",
      "transactionType": "CALL",
      "contractName": null,
      "contractAddress": "0x892e3618808d42875a3f9cd64f3140e5c9d9bdec",
      "function": "Deposit(bytes)",
      "arguments": [
        "0x45514158507878485973546d43576f77586e3636775051704f5f6a7179695a37636b756d6566765132594634736e4656"
      ],
      "transaction": {
        "from": "0x2373a942febc0ee428b266bdd58275794e7f1553",
        "to": "0x892e3618808d42875a3f9cd64f3140e5c9d9bdec",
        "gas": "0xa5c0",
        "value": "0xb5e620f48000",
        "input": "0x7adcde220000000000000000000000000000000000000000000000000000000000000020000000000000000000000000000000000000000000000000000000000000003045514158507878485973546d43576f77586e3636775051704f5f6a7179695a37636b756d6566765132594634736e465600000000000000000000000000000000",
        "nonce": "0xe9",
        "chainId": "0xaa36a7"
      },
      "additionalContracts": [],
      "isFixedGasLimit": false
    }
  ],
  "receipts": [
    {
      "status": "0x1",
      "cumulativeGasUsed": "0x172a548",
      "logs": [
        {
          "address": "0x892e3618808d42875a3f9cd64f3140e5c9d9bdec",
          "topics": [
            "0xdcc506b9e6fac3bcb660e496d1d1ed42583add2a7b06a06b52aeb401d4863c2e",
            "0x0000000000000000000000000000000000000000000000000000000000000005",
            "0x0000000000000000000000002373a942febc0ee428b266bdd58275794e7f1553"
          ],
          "data": "0x00000000000000000000000000000000000000000000000000000000000000400000000000000000000000000000000000000000000000000000b5e620f48000000000000000000000000000000000000000000000000000000000000000003045514158507878485973546d43576f77586e3636775051704f5f6a7179695a37636b756d6566765132594634736e465600000000000000000000000000000000",
          "blockHash": "0x27fd26b8a8648b090f4bece2872e7ddeab7c6b634917fd4f92ce23369d10b019",
          "blockNumber": "0x6f0ad6",
          "transactionHash": "0x34a8f6096124e86893ff5938990126b3a61905a598274bcb9200581658a754ef",
          "transactionIndex": "0xc8",
          "logIndex": "0x1c6",
          "removed": false
        }
      ],
      "logsBloom": "0x00000000000000000000000000000000000000000000000000000000000000000000000000000000000000000000000000000000000000000000000000000000000010000000000002000000000000000000000000000000000000000000000000000000000000000000000000000000000000000001000000000000000000000000000000000000000000000000001000000800000000000020000000000000000000000000000008000000000000000000000000000000000000000000000000000004000000000004000000000000000000000000000000000000000000000000000000040000000000000000080000000000000000000000000000000080",
      "type": "0x2",
      "transactionHash": "0x34a8f6096124e86893ff5938990126b3a61905a598274bcb9200581658a754ef",
      "transactionIndex": "0xc8",
      "blockHash": "0x27fd26b8a8648b090f4bece2872e7ddeab7c6b634917fd4f92ce23369d10b019",
      "blockNumber": "0x6f0ad6",
      "gasUsed": "0x7800",
      "effectiveGasPrice": "0x16abbca45",
      "from": "0x2373a942febc0ee428b266bdd58275794e7f1553",
      "to": "0x892e3618808d42875a3f9cd64f3140e5c9d9bdec",
      "contractAddress": null
    }
  ],
  "libraries": [],
  "pending": [],
  "returns": {},
  "timestamp": 1734180193,
  "chain": 11155111,
  "commit": "48da181"
}