{
  "transactions": [
    {
      "hash": "0x18e8d45d42e603370fabe21fa606f4391606f0d081f7358719d8f0daa4f2ad00",
      "transactionType": "CALL",
      "contractName": null,
      "contractAddress": "0x892e3618808d42875a3f9cd64f3140e5c9d9bdec",
      "function": "Deposit(bytes)",
      "arguments": [
        "0x45514158507878485973546d43576f77586e3636775051704f5f6a7179695a37636b756d6566765132594634736e4656"
      ],
      "transaction": {
        "from": "0x2373a942febc0ee428b266bdd58275794e7f1553",
        "to": "0x892e3618808d42875a3f9cd64f3140e5c9d9bdec",
        "gas": "0xa5c0",
        "value": "0xb5e620f48000",
        "input": "0x7adcde220000000000000000000000000000000000000000000000000000000000000020000000000000000000000000000000000000000000000000000000000000003045514158507878485973546d43576f77586e3636775051704f5f6a7179695a37636b756d6566765132594634736e465600000000000000000000000000000000",
        "nonce": "0xee",
        "chainId": "0xaa36a7"
      },
      "additionalContracts": [],
      "isFixedGasLimit": false
    }
  ],
  "receipts": [
    {
      "status": "0x1",
      "cumulativeGasUsed": "0x101461c",
      "logs": [
        {
          "address": "0x892e3618808d42875a3f9cd64f3140e5c9d9bdec",
          "topics": [
            "0xdcc506b9e6fac3bcb660e496d1d1ed42583add2a7b06a06b52aeb401d4863c2e",
            "0x000000000000000000000000000000000000000000000000000000000000000a",
            "0x0000000000000000000000002373a942febc0ee428b266bdd58275794e7f1553"
          ],
          "data": "0x00000000000000000000000000000000000000000000000000000000000000400000000000000000000000000000000000000000000000000000b5e620f48000000000000000000000000000000000000000000000000000000000000000003045514158507878485973546d43576f77586e3636775051704f5f6a7179695a37636b756d6566765132594634736e465600000000000000000000000000000000",
          "blockHash": "0x9c8bd237f16b26b994f46a106073270aad9aa2a651dd6b13b78ce5646668060a",
          "blockNumber": "0x6f0c39",
          "transactionHash": "0x18e8d45d42e603370fabe21fa606f4391606f0d081f7358719d8f0daa4f2ad00",
          "transactionIndex": "0x5b",
          "logIndex": "0x287",
          "removed": false
        }
      ],
      "logsBloom": "0x00000000000000000000000000000000000000000000000000000000000000000000000000000000000000000000000000000000040000000020000000000000000000000000000002000000000000000000000000000000000000000000000000000000000000000000000000000000000000000001000000000000000000000000000000000000010000000000000000000000000000000020000000000000000000000000000008000000000000000000000000000000000000000000000000000004000000000004000000000000000000000000000000000000000000000000000000040000000000000000080000000000000000000000000000000080",
      "type": "0x2",
      "transactionHash": "0x18e8d45d42e603370fabe21fa606f4391606f0d081f7358719d8f0daa4f2ad00",
      "transactionIndex": "0x5b",
      "blockHash": "0x9c8bd237f16b26b994f46a106073270aad9aa2a651dd6b13b78ce5646668060a",
      "blockNumber": "0x6f0c39",
      "gasUsed": "0x7800",
      "effectiveGasPrice": "0x2619c805a",
      "from": "0x2373a942febc0ee428b266bdd58275794e7f1553",
      "to": "0x892e3618808d42875a3f9cd64f3140e5c9d9bdec",
      "contractAddress": null
    }
  ],
  "libraries": [],
  "pending": [],
  "returns": {},
  "timestamp": 1734184729,
  "chain": 11155111,
  "commit": "48da181"
}