{
  "transactions": [
    {
      "hash": "0x82d5acdfd77abdb9dffded3d4f3dd91a443a414d60dd887ddf6fcc21efb26bc9",
      "transactionType": "CALL",
      "contractName": null,
      "contractAddress": "0x892e3618808d42875a3f9cd64f3140e5c9d9bdec",
      "function": "Deposit(bytes)",
      "arguments": [
        "0x45514158507878485973546d43576f77586e3636775051704f5f6a7179695a37636b756d6566765132594634736e4656"
      ],
      "transaction": {
        "from": "0x2373a942febc0ee428b266bdd58275794e7f1553",
        "to": "0x892e3618808d42875a3f9cd64f3140e5c9d9bdec",
        "gas": "0xa5c0",
        "value": "0xb5e620f48000",
        "input": "0x7adcde220000000000000000000000000000000000000000000000000000000000000020000000000000000000000000000000000000000000000000000000000000003045514158507878485973546d43576f77586e3636775051704f5f6a7179695a37636b756d6566765132594634736e465600000000000000000000000000000000",
        "nonce": "0xf6",
        "chainId": "0xaa36a7"
      },
      "additionalContracts": [],
      "isFixedGasLimit": false
    }
  ],
  "receipts": [
    {
      "status": "0x1",
      "cumulativeGasUsed": "0xf3f7cd",
      "logs": [
        {
          "address": "0x892e3618808d42875a3f9cd64f3140e5c9d9bdec",
          "topics": [
            "0xdcc506b9e6fac3bcb660e496d1d1ed42583add2a7b06a06b52aeb401d4863c2e",
            "0x0000000000000000000000000000000000000000000000000000000000000011",
            "0x0000000000000000000000002373a942febc0ee428b266bdd58275794e7f1553"
          ],
          "data": "0x00000000000000000000000000000000000000000000000000000000000000400000000000000000000000000000000000000000000000000000b5e620f48000000000000000000000000000000000000000000000000000000000000000003045514158507878485973546d43576f77586e3636775051704f5f6a7179695a37636b756d6566765132594634736e465600000000000000000000000000000000",
          "blockHash": "0x46122c930dde378cf3a7045e484badb664e95daf5ff583c0d7bdf65703bd61bb",
          "blockNumber": "0x6f12a2",
          "transactionHash": "0x82d5acdfd77abdb9dffded3d4f3dd91a443a414d60dd887ddf6fcc21efb26bc9",
          "transactionIndex": "0x95",
          "logIndex": "0x159",
          "removed": false
        }
      ],
      "logsBloom": "0x00000000000000000000000000000000000000000000000000000000000000000000000000000000000000000000000000000000000000000000000000000000000000000000000002000000000000000000000000000000000000000000000000000000000000000000000000000000000000004001000000000000000000000000000000000000000000000000000000000000000000000020000000000000000000000000000008000000000000000000000000000000000000000400000000001004000000000004000000000000000000000000000000000000000000000000000000040000000000000000080000000000000000000000000000000080",
      "type": "0x2",
      "transactionHash": "0x82d5acdfd77abdb9dffded3d4f3dd91a443a414d60dd887ddf6fcc21efb26bc9",
      "transactionIndex": "0x95",
      "blockHash": "0x46122c930dde378cf3a7045e484badb664e95daf5ff583c0d7bdf65703bd61bb",
      "blockNumber": "0x6f12a2",
      "gasUsed": "0x7800",
      "effectiveGasPrice": "0x1defa561d",
      "from": "0x2373a942febc0ee428b266bdd58275794e7f1553",
      "to": "0x892e3618808d42875a3f9cd64f3140e5c9d9bdec",
      "contractAddress": null
    }
  ],
  "libraries": [],
  "pending": [],
  "returns": {},
  "timestamp": 1734205610,
  "chain": 11155111,
  "commit": "48da181"
}